:020000040800F2
:10000000700600208901000829040008C1030008C7
:100010002504000843020008690B000800000000E6
:10002000000000000000000000000000450800087B
:1000300047020008000000000108000881090008CC
:10004000A3010008A3010008A3010008A301000800
:10005000A3010008A3010008A3010008A3010008F0
:10006000A3010008A3010008A3010008A3010008E0
:10007000A3010008A3010008A3010008A3010008D0
:10008000A3010008A3010008A3010008A3010008C0
:10009000A3010008A3010008A3010008A3010008B0
:1000A000A3010008A3010008A3010008A3010008A0
:1000B000A3010008A3010008A3010008A301000890
:1000C000A3010008A3010008A3010008A301000880
:1000D000A3010008A3010008A3010008A301000870
:1000E000A3010008A3010008A301000800F002F822
:1000F00000F03AF80AA090E8000C82448344AAF188
:100100000107DA4501D100F02FF8AFF2090EBAE885
:100110000F0013F0010F18BFFB1A43F0010318473B
:10012000EC1900000C1A0000103A24BF78C878C1FE
:10013000FAD8520724BF30C830C144BF04680C60ED
:10014000704700000023002400250026103A28BF35
:1001500078C1FBD8520728BF30C148BF0B60704739
:100160001FB51FBD10B510BD00F031F81146FFF7E7
:10017000F7FF00F0FBFC00F04FF803B4FFF7F2FFCD
:1001800003BC00F057F800000948804709480047C1
:10019000FEE7FEE7FEE7FEE7FEE7FEE7FEE7FEE737
:1001A000FEE7FEE704480549054A064B7047000094
:1001B00085090008ED00000870000020700600208E
:1001C000700200207002002070477047704775462B
:1001D00000F02CF8AE4605006946534620F00700B3
:1001E000854618B020B5FFF7DDFFBDE820404FF091
:1001F00000064FF000074FF000084FF0000B21F011
:100200000701AC46ACE8C009ACE8C009ACE8C009DD
:10021000ACE8C0098D46704710B50446AFF30080C6
:100220002046BDE81040FFF7A8BF00000048704717
:100230001000002001491820ABBEFEE72600020096
:10024000704700BFFEE7704700B5034603E04FF478
:100250007A7000F005F8181EA3F10103F7D100BD74
:1002600000EBC001C9004FF0E02251610021916113
:100270000521116100BF4FF0E021096901F48031CF
:100280000029F8D004214FF0E022116170472DE9D8
:10029000F04102460025002600200023002400270C
:1002A00091F803C00CF00F0591F803C00CF0100C8E
:1002B000BCF1000F03D091F802C04CEA050591F89B
:1002C00000C0BCF1000F31D0146800202BE04FF0CB
:1002D000010C0CFA00F3B1F800C00CEA03069E42D0
:1002E00020D183004FF00F0C0CFA03F7BC4305FA42
:1002F00003FC4CEA040491F803C0BCF1280F06D1BA
:100300004FF0010C0CFA00FCC2F814C00AE091F89E
:1003100003C0BCF1480F05D14FF0010C0CFA00FCF2
:10032000C2F810C0401C0828D1D31460B1F800C036
:10033000BCF1FF0F34DD546800202EE000F1080C02
:100340004FF0010808FA0CF3B1F800C00CEA0306FC
:100350009E4221D183004FF00F0C0CFA03F7BC43EF
:1003600005FA03FC4CEA040491F803C0BCF1280F21
:1003700005D100F1080C08FA0CF8C2F8148091F8C5
:1003800003C0BCF1480F07D100F1080C4FF0010881
:1003900008FA0CF8C2F81080401C0828CED354602C
:1003A000BDE8F0810246002093680B400BB10120AC
:1003B00000E0002070470AB1016100E04161704730
:1003C00000BFFEE710B5002402210A48FFF7EAFF4C
:1003D00068B91420FFF738FF00BF02210548FFF776
:1003E000E1FF0028F9D01420FFF72EFF012420465A
:1003F00010BD0000000C014008B50121082000F0EC
:1004000011FA48208DF803000220ADF80000032007
:100410008DF8020069460248FFF739FF08BD000069
:10042000000C014000BFFEE7704770B500240EE0ED
:100430000021204600F0EFF8002504E0002000F045
:100440007BF9681CC5B2802DF8DB601CC4B2082C97
:10045000EEDB70BD08B50121082000F0E3F914209F
:100460008DF8030003208DF802004FF48070ADF882
:10047000000069460A48FFF70AFF4FF40070ADF824
:10048000000069460648FFF702FF012211020448F6
:10049000FFF791FF012251020148FFF78CFF08BDD1
:1004A000000C014070B50546002415E08020204175
:1004B00000EA05024FF400710E48FFF77CFF0122AD
:1004C00011020C48FFF777FF00224FF480710948B2
:1004D000FFF771FF601CC4B2082CE7DB0122110298
:1004E0000448FFF768FF00224FF480710148FFF7CE
:1004F00062FF70BD000C014010B5012251020A4894
:10050000FFF759FF012211020748FFF754FF0022AD
:100510004FF400710448FFF74EFF00224FF4807142
:100520000148FFF748FF10BD000C014010B5002244
:100530004FF400710648FFF73EFF01221102044804
:10054000FFF739FF012251020148FFF734FF10BDC8
:10055000000C014070B5002406E0002500E06D1C91
:10056000B5F57A7FFBD3641CB4F57A7FF5D3FFF73A
:1005700071FFAE2000F0D0F8D52000F0CDF880203B
:1005800000F0CAF8A82000F0C7F83F2000F0C4F837
:10059000D32000F0C1F8002000F0BEF8402000F0A9
:1005A000BBF8A12000F0B8F8C82000F0B5F8DA20B8
:1005B00000F0B2F8122000F0AFF8812000F0ACF8A3
:1005C000CF2000F0A9F8D92000F0A6F8F12000F023
:1005D000A3F8DB2000F0A0F8302000F09DF8A42064
:1005E00000F09AF8A62000F097F88D2000F094F81B
:1005F000142000F091F8AF2000F08EF8FFF715FFFF
:1006000070BD10B50246012000E050430B1EA1F161
:100610000101FAD110BD70B505460C4645F0B00099
:1006200000F07AF8102141EA141000F075F804F097
:100630000F0000F071F870BD2DE9F04105460E463F
:100640001746721ED206110E6A1E5206100EFFF7D2
:10065000E2FF002409E0A7F12001134A02EB011197
:10066000085D00F069F8601CC4B2082CF3DB721E50
:10067000D206110E6A1E012303EB4202D0B2FFF72D
:10068000CAFF00240BE0A7F12001074A02EB011288
:1006900004F10801505C00F04FF8601CC4B2082C53
:1006A000F1DBBDE8F08100001C1500082DE9F047E2
:1006B00080460E4617461D46002415E0281B411EA5
:1006C0000A20FFF79EFFB7FBF0F00A21B0FBF1F222
:1006D00001FB120000F130093019C1B24A46404610
:1006E000FFF7AAFF601CC4B2AC42E7DBBDE8F087AD
:1006F0002DE9F04107460E461546002407E02A5D25
:100700003019C1B23846FFF797FF601CC4B2285DAC
:100710000028F4D1BDE8F08110B50446FFF7ECFEE7
:100720007820FFF7BFFE0020FFF7BCFE2046FFF752
:10073000B9FEFFF7FBFE10BD10B50446FFF7DCFE67
:100740007820FFF7AFFE4020FFF7ACFE2046FFF712
:10075000A9FEFFF7EBFE10BD00B589B001210846E8
:1007600000F050F80121042000F05CF818208DF80A
:1007700023000220ADF8200003208DF8220008A9F4
:100780001A48FFF784FD4FF0804000F037F9002051
:10079000ADF81A00ADF8160044F61F60ADF8180069
:1007A0004720ADF8140000208DF81C0005A94FF07B
:1007B000804000F087F901A800F078F96020ADF8DA
:1007C00004000020ADF80C000120ADF80600002068
:1007D000ADF80A0001A94FF0804000F015F90121A1
:1007E000880700F0FFF809B000BD000000080140D4
:1007F00010B5044621464FF0804000F061F910BD6D
:100800007047000029B1064AD2690243044BDA61FD
:1008100004E0034AD2698243014BDA617047000069
:100820000010024029B1064A92690243044B9A61C2
:1008300004E0034A92698243014B9A6170470000C9
:1008400000100240704710B5FFF786FF10BD000092
:100850002DE9F84F04460D4600220C4B2046294650
:1008600000F07CFA80460022094B00F039FC064675
:100870000022084B00F0BEF9824600F0C7FB80B2B0
:100880000090FFF7B5FFBDE8F88F000000806640DC
:1008900000409F4000407F4010B500F001F810BDBF
:1008A0000CB50020019000903348006840F480307F
:1008B0003149086000BF3048006800F40030009003
:1008C0000198401C0190009818B90198B0F5A06FEC
:1008D000F1D12948006800F4003010B101200090E7
:1008E00001E0002000900098012843D123480068CF
:1008F00040F01000214908600846006820F003001D
:1009000008600846006840F0020008601A48406825
:10091000194948600846406848600846406840F405
:10092000806048600846406820F47C1048600846B3
:10093000406840F4E81048600846006840F0807065
:10094000086000BF0C48006800F000700028F9D073
:100950000948406820F0030007494860084640689D
:1009600040F00200486000BF0348406800F00C00FF
:100970000828F9D10CBD0000001002400020024000
:100980007047000010B51348006840F0010011499D
:10099000086008464068104908400E49486008460B
:1009A00000680E4908400B4908600846006820F4BA
:1009B000802008600846406820F4FE0048604FF43C
:1009C0001F008860FFF768FF4FF00060044908606F
:1009D00010BD0000001002400000FFF8FFFFF6FE0F
:1009E00008ED00E021B1028842F00102028004E03B
:1009F00002884FF6FE731A400280704701894FF655
:100A0000F87211400181704770B500240022002364
:100A1000058C4FF6EF7635400584028C8388048B75
:100A200048F6FF752C404FF6FF452C400D884FF6D9
:100A3000FF7606EA05252C434FF6DF752A400D891F
:100A400006EA05152A434D8806EA05152A43154D81
:100A5000A84202D0144DA8421DD14FF67F752A40FE
:100A60004D894FF6FF7606EA05152A434FF6BF7506
:100A70002A408D8806EA05152A434FF6FF352B409C
:100A80004FF2FF752B408D8906EA85052B43CD89F2
:100A900006EA85052B4383800483CD88058702847D
:100AA00070BD0000002C0140003401400021018095
:100AB00041808180C180018141818181C1817047F4
:100AC00001877047002202881D4B98420ED01D4BB3
:100AD00098420BD0B0F1804F08D01B4B984205D004
:100AE0001A4B984202D01A4B984204D14FF68F739A
:100AF0001A404B881A43174B984207D0164B98421E
:100B000004D04FF6FF431A40CB881A4302808B88EB
:100B100083850B8803850A4B98420BD0094B98427A
:100B200008D00E4B984205D00D4B984202D00D4B89
:100B3000984201D10B7A038601238382704700001B
:100B4000002C014000340140000400400008004037
:100B5000000C004000100040001400400040014024
:100B6000004401400048014000BFFEE7FFF7F2FCEF
:100B7000FFF769FEFFF740FC18A201210846FFF7C6
:100B8000B7FD29E0FFF71EFC1649087008460078FB
:100B9000012812D10022144B144903C900F02AF88D
:100BA000124A03C20022124B104903C900F096FBFF
:100BB00003D200200D4A106050600C4903C9FFF7B2
:100BC00047FE0A4903C900F021FA044603232246DE
:100BD00007210120FFF76AFDD4E70000416E676C32
:100BE000653A00000000002000002E4008000020B0
:100BF0000080664010B591EA030F48BF83F00043C0
:100C000000F1AA83841A71EB030C05D2121943EB8D
:100C10000C03001B61EB0C01DFF824E14FEA1154D7
:100C2000A4EB135C1EEA430F18BF9EEA445F73D027
:100C300023EA0E03DCF1200E21EA045143F4801371
:100C400032D322FA0CFE10EB0E0023FA0CFE41EB1D
:100C50000E01CCF1200E03FA0EFE10EB0E0051F146
:100C60000001B1F5801FCCF1200E32D201EB04510E
:100C700012FA0EF2BDE8104058BF7047401C38BF52
:100C80005FEA420218BF7047002814BF20F001003D
:100C900041F100014FEA410313F5001F38BF7047CF
:100CA000A1F1C04100F014BB012A43EB0302ACF1F7
:100CB000200CDCF11F0E32BF4FF0000E23FA0CF3B4
:100CC00010EB030041EB0451B4EB115FD0D0A1EB6A
:100CD000045101F5801149085FEA300001EB04512D
:100CE0000ED350F1000038BF12FA0EFE08D1BDE855
:100CF0001040C9E7401C38BF5FEA4202CAD1C3E7CF
:100D0000BDE810404FEA410313F5001F38BF70479C
:100D1000A1F1C04100F0DCBA9EEA445F08D011EABC
:100D20005E0FBDE8104004BF01F000410020704795
:100D3000BDE8104070B500F07DFA00BF64FBBE3E18
:100D40000000E0FF491058BFC1F140415B1058BF9F
:100D5000C3F140438B42EFF3008070472DE9C0415F
:100D600030B4DFF8A0C23CEA111418BF3CEA1314F7
:100D700000F0EC8081EA03051CEA111444EAD57402
:100D800018BF1CEA131500F0C780A4EB05044FF050
:100D9000004545EAC12145EAC32341EA505143EAEF
:100DA000525304F17F74994204F500344FEAC02095
:100DB0004FEAC22208BF904200F09C804FEA1365C0
:100DC0000FF24016765D4FEA134506FB05F7C7F1B3
:100DD000807706FB07F74FEAD737A7FB0368764211
:100DE000C8F58038A7FB06CE38BFA8F1010807FB7D
:100DF00008E64FF0000EA6FB028CE6FB03CEDCF10A
:100E0000000CCEF1004E38BFAEF1010EA6FB0C581F
:100E10004FF000074FF00005E6FB0E87A1FB08C668
:100E2000A0FB07CE16EB0E0645F10005E1FB0765BA
:100E300015F1E04E7EBFA4F580345FEA46066D41B1
:100E400016F1800745F100054FEA17274FEA0666BD
:100E500047EA0567A6F1DE46B6F1805F4FEA152541
:100E60001FD9384624F0010C05EBC471BCF1FE6FAC
:100E700001EB0C1102D8F0BCBDE8008124425CBF3C
:100E800001F5801E9EEAC47F02D4F0BCBDE800815B
:100E9000244238D4F0BCA1F1C041BDE8004100F0CB
:100EA00017BA4FEAD22242EA43524FEAD323A7FBB2
:100EB00002864FEAD02040EA415007FB03661EEA53
:100EC0000E0F4FEAD12105FB026658BFA6EB005674
:100ED000B6EB00564FEA520E4EEAC37E18EB0E0EEA
:100EE00056EB530EBDD518EB02085E417F1C55F141
:100EF0000005B6E74FF480154FF000074FF00006ED
:100F00004FF00008ADE7F0BC4FF0000001F1C04128
:100F100001F00041BDE8008111EA0C1F0CEA131535
:100F200000D00CE013EA0C1F00F025804FF0000009
:100F3000F0BC81EA030101F00041BDE80081F0BC92
:100F4000BDE8004181EA030100F0C2B9F0BCBDE890
:100F5000004170B500F06EF9097EFC3E00F007B864
:100F600081EA03014FF0000001F00041704781EA7F
:100F7000030100F0ADB9F0BCBDE800414FF0000046
:100F800021497047FFFDFBF9F7F5F4F2F0EEEDEBC8
:100F9000E9E8E6E4E3E1E0DEDDDBDAD8D7D5D4D377
:100FA000D1D0CFCDCCCBCAC8C7C6C5C4C2C1C0BFC3
:100FB000BEBDBCBBBAB9B8B7B6B5B4B3B2B1B0AFC9
:100FC000AEADACABAAA9A8A8A7A6A5A4A3A3A2A1AD
:100FD000A09F9F9E9D9C9C9B9A9999989797969568
:100FE00095949393929191908F8F8E8E8D8C8C8B04
:100FF0008B8A89898888878786858584848383828C
:10100000828181800000FF070000F87F4FEA1153C2
:10101000A3F58063D3F11E03A8BFD3F1200C08DB36
:101020004FF0004242EAC12252EA505232FA03F033
:10103000704709420BD4102BC4BF0020704703F542
:10104000787CBCF1FF3F05D04FF0FF3070474FF088
:101050000000704770B500F0EDF800BF49922480A1
:1010600000207047F0E7000051EA030C17D41CF58C
:10107000801F58BFBCF5801F00F10680994218BF41
:10108000704708BF9042704707D711F5801F58BFBF
:1010900013F5801F19D499427047894270471CF597
:1010A000801F08D5BCF5801FF7D58B4218BF70474D
:1010B00008BF824270474FF4001C1CEB410F38BF41
:1010C0001CEB430F01D28B42704770B500F0B2F8B1
:1010D000922449004FF000514FF08053FFF732BE89
:1010E000DFF848C170B51CEA111E1EBF1CEA1315BB
:1010F0009EEA0C0F95EA0C0F00F06F8081EA030462
:1011000023EA4C134EEAD47E21EA4C1141F48011BB
:1011100043F48013AE44A1FB024CA0FB0365AEF187
:101120007F7E361955EB0C05A1FB034C4CF10003F7
:10113000A0FB021C16EB0C06654153F100030942AB
:1011400018BF46F0010613F4007F0BD14FEA0331BC
:101150004FEA0530340341EA155140EA16506FF06A
:1011600003020AE04FEAC3214FEAC520F40241EA34
:10117000555140EA56506FF0020202EB2E4201EB4D
:10118000025585EACE710AD05FEA440C18BF24F0FC
:10119000004450F1000041F1000120EAD47040F217
:1011A000FE7C624500D270BDA84214BF4FF080445F
:1011B0004FF04044002E08BF0024BEF1806FA8BF4E
:1011C000A1F1C041BDE8704080F282804FF0000084
:1011D00001F1C04101F0004170479EEA0C0F0CEA9A
:1011E000131518BF95EA0C0F06D04FF0000081EAE6
:1011F000030E0EF0004170BD00F01CF88900013EA6
:1012000000F007B800F009B84FEA430C5FEA5C5CF5
:1012100008D081EA030100F05BB84FEA410C5FEAB5
:101220005C5CF6D14FF00000014970470000FF07F9
:101230000000F87F0EF1020E2EF0030E5EF8046B34
:10124000364205D4012A43EB030515F5001F12D8D9
:10125000012841EB010C1CF5001F0CD80ED14FEA00
:10126000D17C15F5001F0CEB4C0C0CF1020C08BFE7
:101270004CEBD37C04E04FF0080C01E04FEAD37C48
:101280000CEB4C0526FA05F606F00706B6F1040C41
:1012900006D20EEB860CBDE870404CF0010C6047A6
:1012A000DFE80CF0090B02024FF000414FF00000A4
:1012B000A1F5002170BD19461046012851EB01042B
:1012C00018BFD4F5001484BF002001F0004170BDA8
:1012D0000808A0F500114FEA3101704753EA010CEC
:1012E00017D41CF5801F58BFBCF5801F00F1068085
:1012F0008B4218BF704708BF8242704707D713F56B
:10130000801F58BF11F5801F19D48B4270479B4234
:1013100070471CF5801F08D5BCF5801FF7D5994292
:1013200018BF704708BF904270474FF4001C1CEB79
:10133000430F38BF1CEB410F01D2994270470FB4E5
:101340000CBC03BCFFF7C1BE10B591EA030F48BF48
:1013500083F000433FF556AC841A71EB030C07D2BF
:1013600012198CF0004C43EB0C03001B61EB0C01D9
:10137000DFF8A4E14FEA1154A4EB135C1EEA430F1B
:1013800018BF9EEA445F00F0B08023EA6E03524229
:1013900021EA0451C3EB6E0338BF5B1EDCF1200E63
:1013A00025D322FA0CFE10EB0E0043FA0CFE41EBA3
:1013B0000E01CCF1200E03FA0EFE10EB0E0051F1DF
:1013C0000001CCF1200E29D412FA0EF201EB0451E7
:1013D000BDE8104058BF7047401C1CBFB2F1004F21
:1013E000704700280CBF491C20F00100704712EB29
:1013F000020E43EB030218BF4FF0010E4EEA420209
:10140000ACF1200CDCF11E0E54D943FA0CFE10EBAB
:101410000E0051F1FF31CCF11E0ED5D50EF1010EAB
:1014200012FA0EFE404141EB010101EB445C5FEA20
:101430005C5C10D910EBDE7001EB045138BFBEF1DB
:10144000004FBDE8104018BF704700280CBF491C72
:1014500020F00100704730D24FEAD42C11F5001172
:1014600024F400641BD0B1FA81F20B3AA41AA41E32
:10147000D2F12003914030FA03F31943904001EB7D
:10148000CC71002C01EB0451BDE81040A8BF70479F
:1014900001F1C0414FF0000001F000417047B0FA87
:1014A00080F310FA03F100D110BDE41A173C48058F
:1014B000C90AE4E701EB045110BD491001EB0451E6
:1014C000BDE810404FEA300002E04FF000017047E5
:1014D0004A0008BF0042F8D0B2F5001F28BF70478D
:1014E00001F000414FF0000070479EEA445F07D0D2
:1014F00011EA5E0FBDE8104004BF002100207047D4
:10150000BDE8104070B5FFF795FE00BF40DFF63E26
:1015100083F00041104670470000E0FF000000002B
:10152000000000000000000000000000000000F8C3
:1015300000000000000000333000000000100C0626
:10154000100C0600000000000000000040C07840C1
:10155000C0784000043F04043F040400007088FC8D
:1015600008300000001820FF211E0000F008F000E5
:10157000E018000000211C031E211E0000F0088856
:10158000700000001E2123241927211010160E00C0
:10159000000000000000000000000000000000E06B
:1015A0001804020000000007182040000002041880
:1015B000E00000000040201807000000404080F0DC
:1015C000804040000202010F01020200000000F012
:1015D000000000000101011F0101010000000000E6
:1015E0000000000080B0700000000000000000005B
:1015F00000000000000101010101010100000000E4
:10160000000000000030300000000000000000007A
:1016100080601804006018060100000000E0100857
:101620000810E000000F102020100F00001010F82C
:10163000000000000020203F20200000007008086B
:1016400008887000003028242221300000300888EB
:10165000884830000018202020110E000000C02013
:1016600010F8000000070424243F240000F8088834
:10167000880808000019212020110E0000E01088C1
:1016800088180000000F112020110E0000380808F3
:10169000C83808000000003F000000000070880803
:1016A00008887000001C222121221C0000E0100884
:1016B0000810E0000000312222110F00000000C0DD
:1016C000C00000000000003030000000000000807A
:1016D000000000000000806000000000000080406A
:1016E0002010080000010204081020004040404083
:1016F00040404000040404040404040000081020D6
:10170000408000000020100804020100007048081A
:101710000808F0000000003036010000C030C82882
:10172000E810E0000718272423140B000000C0383D
:10173000E0000000203C23020227382008F88888B7
:1017400088700000203F202020110E00C0300808C3
:1017500008083800071820202010080008F808089A
:101760000810E000203F202020100F0008F8888893
:10177000E8081000203F20202320180008F888885F
:10178000E8081000203F200003000000C0300808D7
:101790000838000007182020221E020008F8080060
:1017A0000008F808203F210101213F20000808F827
:1017B000080800000020203F20200000000008084A
:1017C000F8080800C08080807F00000008F888C00A
:1017D00028180800203F20012638200008F80800BB
:1017E00000000000203F20202020300008F8F800F2
:1017F000F8F80800203F003F003F200008F830C004
:101800000008F808203F200007183F00E0100808F3
:101810000810E0000F10202020100F0008F8080822
:101820000808F000203F210101010000E010080835
:101830000810E0000F18242438504F0008F888885A
:1018400088887000203F2000030C3020007088083A
:10185000080838000038202121221C00180808F848
:10186000080818000000203F2000000008F80800C9
:101870000008F808001F202020201F00087888009A
:1018800000C83808000007380E010000F80800F80A
:101890000008F800033C0700073C030008186880B4
:1018A0008068180820302C03032C30200838C8002A
:1018B000C83808000000203F200000001008080879
:1018C000C83808002038262120201800000000FE1B
:1018D000020202000000007F40404000000C30C0C7
:1018E00000000000000000010638C00000020202F3
:1018F000FE000000004040407F00000000000402A5
:1019000002020400000000000000000000000000CF
:1019100000000000808080808080808000020204BF
:1019200000000000000000000000000000008080B7
:10193000808000000019242222223F2008F8008025
:1019400080000000003F112020110E0000000080E8
:1019500080800000000E1120202011000000008077
:101960008088F800000E112020103F2000008080A9
:1019700080800000001F222222221300008080F0BD
:10198000888888180020203F2020000000008080E8
:1019900080808000006B94949493600008F800802D
:1019A00080800000203F210000203F200080989888
:1019B000000000000020203F2020000000000080E8
:1019C0009898000000C08080807F000008F8000028
:1019D00080808000203F24022D302000000808F87D
:1019E000000000000020203F202000008080808038
:1019F00080808000203F20003F20003F80800080CA
:101A000080800000203F210000203F2000008080D7
:101A100080800000001F202020201F008080008088
:101A20008000000080FFA12020110E000000008037
:101A300080808000000E112020A0FF808080800028
:101A40008080800020203F21200001000000808055
:101A5000808080000033242424241900008080E04A
:101A6000808000000000001F202000008080000017
:101A700000808000001F202020103F2080808000F8
:101A80000080808000010E30080601008080008008
:101A9000008080800F300C030C300F00008080002D
:101AA000808080000020312E0E3120008080800058
:101AB0000080808080818E70180601000080808008
:101AC000808080000021302C2221300000000000A6
:101AD000807C020200000000003F40400000000047
:101AE000FF00000000000000FF0000000002027C78
:101AF000800000000040403F00000000000601019F
:101B00000202040400000000000000002C1B00087A
:101B10000000002010000000280100083C1B000805
:101B200010000020600600004401000800000000D2
:0C1B3000000000000000000000000000A9
:04000005080000ED02
:00000001FF
