:020000040800F2
:100000008007002045020008C7260008BF26000818
:10001000C326000899250008992D0008000000005B
:10002000000000000000000000000000FD290008A2
:100030009D2500080000000005290008212C00086B
:100040005F0200085F0200085F0200085F0200080C
:100050005F0200085F0200085F0200085F020008FC
:100060005F0200085F0200085F0200085F020008EC
:100070005F0200085F0200085F0200085F020008DC
:100080005F0200085F0200085F0200085F020008CC
:100090005F0200085F0200085F0200085F020008BC
:1000A0005F0200085F0200085F0200085F020008AC
:1000B0005F0200085F0200085F0200085F0200089C
:1000C0005F0200085F0200085F0200085F0200088C
:1000D0005F0200085F0200085F0200085F0200087C
:1000E0005F0200085F0200085F02000800F002F8EB
:1000F00000F098F80AA090E8000C82448344AAF12A
:100100000107DA4501D100F08DF8AFF2090EBAE827
:100110000F0013F0010F18BFFB1A43F0010318473B
:10012000D82E0000F82E0000103A24BF78C878C1FD
:10013000FAD8520724BF30C830C144BF04680C60ED
:10014000704700000023002400250026103A28BF35
:1001500078C1FBD8520728BF30C148BF0B60704739
:100160006E2900F08182702900F0D583662902F0A3
:10017000B986652902F0B686672902F0B38661293F
:1001800002F0B28603681B0A28BF41F0800169298A
:1001900000F0AC80642900F0A980752900F0A680E9
:1001A0006F2900F06283782900F0A183E92900F02B
:1001B000FD82E42900F0FA82F52900F0F782EF29A8
:1001C00000F05F83F82900F0A0830368DB0928BFF3
:1001D00041F08001632900F08587732900F08A8748
:1001E000E32900F09587F32900F09A8700207047F3
:1001F0001FB59DE8030001F099FB01F0B5F804007C
:100200000020002102F058FE401C60600020002108
:1002100002F03CFEE06000F08BFF1FBD10B500F067
:10022000F0FF10BD01F073F81146FFF7E1FF02F097
:10023000DDFD01F021FB03B4FFF7F0FF03BC01F08B
:1002400047FD00000948804709480047FEE7FEE7F0
:10025000FEE7FEE7FEE7FEE7FEE7FEE7FEE7FEE776
:1002600004480549054A064B70470000252C000844
:10027000ED0000088001002080070020800300209E
:10028000800300201CB50C46064B7B446946009059
:10029000204600F002FA04460020694600F010FAF9
:1002A00020461CBD330400000FB4044910B503AA56
:1002B000029800F00BFA10BC5DF814FB74000020EB
:1002C0000FB41CB5084B06AA7B44694600900598FC
:1002D00000F0E3F904460020694600F0F1F92046F9
:1002E0001CBC5DF814FB0000F50300002DE9F04193
:1002F0000646002410687529314616A510D000F076
:100300001FF9002802DA404213A507E031688A0786
:1003100001D512A502E0490704D511A5012401E089
:1003200000F017F900210A2206F1240709E0B0FBCA
:10033000F2FCB0FBF2F302FB1C003030785418469C
:10034000491C0028F3D123462A463046BDE8F04137
:1003500000F031B9000000002D0000002B0000006B
:10036000200000002DE9F05F894604464FF0000AA6
:10037000DFF874B1FB44C0F820A02046E16888474C
:10038000002874D0252806D0D4E901219047206A9E
:10039000401C2062F1E700265F462046E16888475E
:1003A0002028054607DB312D05D2781910F8200CDE
:1003B00008B10643F1E7B00701D526F00406C4F8FA
:1003C0001CA00027C4F818A02A2D09D0284602F046
:1003D000F9FC38B304EB8708303DC8F8185019E031
:1003E00059F8041B204604EB87029161E1688847B5
:1003F000012F054618D1E069002820DA26F02006F2
:100400001DE0D8F8180000EB800005EB4000303804
:10041000C8F818002046E1688847054602F0D2FC7B
:100420000028EED1012F0AD02E2D08D12046E168F8
:1004300088477F1C0546022F46F02006C4DBA069D2
:10044000002803DA404246F00106A061F00701D01F
:1004500026F010066C2D0BD0682D09D04C2D39D00C
:100460006A2D35D0742D35D07A2D33D016E038E092
:10047000E1682F4620468847B842054609D16C2FCF
:1004800026D04FF48060E168064320468847054641
:1004900004E06C2F1AD04FF4807006430DB3A5F121
:1004A0004100192802D8203546F400664A462946FC
:1004B000204626604E46FFF753FE80B101280BD040
:1004C000F61D26F0070000F1080956E74020E4E792
:1004D0008020D8E70020D6E706F104094DE728463A
:1004E00052E7206ABDE8F09F742B00007047704708
:1004F000704770B5044685690068C10601D530268D
:1005000000E02026C00707D070BDD4E901213046A5
:100510009047206A401C20626D1EF6D570BD70B5F4
:10052000044685690078C00707D170BDD4E9012170
:1005300020209047206A401C20626D1EF6D570BDB9
:1005400009684A0501D540B27047C905FCD500B21B
:10055000704709684A0501D5C0B27047C905FCD586
:1005600080B2704770B50C460546012A05D0287840
:10057000800600D5EA69002302E0012305E05B1C48
:10058000934202D2E05C0028F9D1A869E618C01AAB
:10059000A861286A184428622846FFF7AAFF04E0E9
:1005A000D5E9012114F8010B9047B442F8D328464D
:1005B000FFF7B5FF70BD2DE9F0470D46994692460D
:1005C000044600F124080168880604D5E06921F09A
:1005D0001001216000E00120A84201DD471B00E07E
:1005E0000027A1697A1902EB0900081AA061207896
:1005F000C00602D42046FFF77CFF002608E0D4E9BD
:1006000001211AF806009047206A401C761C2062DF
:100610004E45F4DB2078C0060AD52046FFF769FF77
:1006200006E0D4E9012130209047206A401C206276
:10063000381EA7F10107F4DC07E0D4E9012118F81E
:1006400005009047206A401C2062281EA5F1010584
:10065000F3DC2046FFF763FF2078000602D5022076
:10066000BDE8F0870120FBE711680268006A5305C6
:1006700001D508700AE0D30501D5088006E013060D
:1006800003D5C217C1E9000200E0086001207047ED
:1006900001694A1C02610878704700B58FB0CDE946
:1006A00001310021059105497944CDE90310114636
:1006B0006846FFF757FE0FB000BD0000E5FFFFFFE3
:1006C0000A6802F8010B0A6070470000074B70B51A
:1006D0000D467B44FFF7E1FF0446284600F024FD69
:1006E00010B14FF0FF3070BD204670BDFD260000F8
:1006F0002DE9FF5F15468A460446DFF8AC80F844D2
:100700000027D8E900103E46CDE9001010E03AF885
:1007100016106A4602A800F0A7FD411C07D02178F8
:10072000890603D5E269391891420DD80744761C31
:100730002078800602D5E069B84205DDAE42E6DBEE
:100740003AF816000028E2D1A069C01BA06120463B
:10075000FFF7CFFED8E90010CDE90010002017E028
:100760003AF818106A4602A800F07EFDB0F1FF3F8B
:1007700081460BD000250DF1080B05E0D4E90121DD
:100780001BF8050090476D1C4D45F7D308F101009B
:10079000B0428046E4DB206A384420622046FFF7FE
:1007A000BEFEBDE8FF9F0000FE2700002DE9F041DE
:1007B0008046D21D22F007020025D2E90002F52969
:1007C00015A614D0011E72F1000106DA0023D0EB49
:1007D000030063EB020211A608E0D8F800108B07B3
:1007E00001D50FA602E0490701D50EA60125114645
:1007F000002408F1240704E000F098F830323A555C
:10080000641C50EA0102F7D12B463246214640468D
:10081000BDE8F041FFF7CFBE000000002D00000052
:100820002B0000002000000030B4002100F124045F
:1008300008E002F00705D208303542EA4372DB08CF
:100840006554491C52EA0305F3D10468002310A241
:10085000250707D5A40600D421B1C46901230DA240
:10086000641EC46130BCFFF7A6BE10B50446214625
:100870001068FFF76EFE02462046BDE810400023D8
:10088000D2E7D21D22F00701D1E90023CCE7000016
:100890000000000030000000F0B40D46018809059A
:1008A00002D5214C7C4402E01F4C7C440E340021D4
:1008B00000F1240608E002F00F071209E75D42EAA2
:1008C00003721B097754491C52EA0307F3D10278DB
:1008D0000023120704D5702D06D009B1022311346C
:1008E0002246F0BCFFF767BE01231034F8E770B56D
:1008F00004460D4621461068FFF72BFE02462946A6
:100900002046BDE870400023C6E7D21D22F0070351
:10091000D3E90023C0E70368126843F020030360B3
:100920000823C3610023B7E76026000030B5B0F1AB
:100930000A024FEA900E71F100034EEA817EB0EB9D
:100940000E0061EB91014FEA101E4EEA017E10EBA2
:100950000E0041EB11114FEA102E4EEA016E10EB22
:100960000E0041EB11214FEA104E4EEA014E10EB02
:100970000E0041EB1141401841F100014FEAD00057
:1009800040EA41704FEAD10110EB80054FEA810443
:1009900044EA907444EB01046D1944EB0404521BC7
:1009A000A3414FF0000348BF0A3200D530BD401CC0
:1009B00041F1000130BD70472DE9FF4F0C461E4646
:1009C0004FF0FF378BB0D2E90001DDF860800A906C
:1009D0008A46C1F30A5505B93D46002108464FF045
:1009E0000000BAF1000F00F4400005DA00EB8000CF
:1009F0004FF4400101EA50004FEA9059B9F1010F5C
:100A000000DDB9460A9850EA4A000ED044F610506C
:100A1000A5F2FF3545432F14B8F1000F1ED07542E3
:100A2000291E1EDDC9F100021CE0B8F1010F4FF0D4
:100A3000000001D0302103E0F24305E02154401CC6
:100A4000B042FBDB30460022002121540B99C1F853
:100A50000880C1E900200FB0BDE8F08FBD1B6D1C00
:100A6000DEE74A4600DA694206A800F0E9FC06AB78
:100A700093E8070003AB83E8070050460A9901F0AA
:100A8000C3F98DE80700A0F500501F3800900398C7
:100A9000002D0ADD42F21F014A460844002303A943
:100AA0000390684601F02CFC09E0A0F500504A468E
:100AB0001F38002303A90390684601F036FC8DE837
:100AC00007000004000C03D04FF0FF30410800E0A5
:100AD0001046B8F1000F03D00022009215461EE028
:100AE000751E05D4FFF722FF303262556D1EF9D511
:100AF000B3460122084302D000227F1C04E0207884
:100B0000302801D100227F1E002A099784D01DE0E1
:100B1000112D07DAFFF70AFF303262556D1C50EADB
:100B20000102F5D1084302D00098C8B10EE00021BF
:100B3000681E05E0235C625C63542254401E491C1D
:100B40008142F7DBAB46A81B401E0990002004F849
:100B50000B000B98099AC0F80880C0E9002B7AE7CF
:100B600011264FF0000857E72DE9F04F884604465C
:100B7000D21D22F0070191B0D1E90001CDE90A01AF
:100B800002F00CF902460B98C00F01D02D2007E0AF
:100B90002068810701D52B2002E0202101EAC00056
:100BA000032A099001D0072A05DB03464146204667
:100BB00000F006FC0BE12078800601D5E06900E03A
:100BC0000620B8F1650F814606D0B8F1660F18D03F
:100BD000B8F1670F70D131E00020B9F1110F00902A
:100BE00001DB112301E009F101030AAA01A90CA804
:100BF000FFF7E2FEDDE90C70002609F101058346EE
:100C000047E001204B4600904FF000470AAA01A997
:100C10000CA8FFF7D1FEDDE90DB00C995D4600266A
:100C200010B909F101000D18B9EB050003D4C0F1AA
:100C3000FF3609F10105A5EB09002BE0B9F1010F21
:100C400001DA4FF001090020B9F1110F0090484678
:100C500001DD112300E003460AAA01A90CA8FFF751
:100C6000ABFEDDE90C704D46002683462078000778
:100C70000AD4AB4500DA5D4601A8012D04DD411917
:100C800011F8011C302907D04F4502DA17F1040F83
:100C900004DA012082460FE06D1EEEE7002F02DC31
:100CA000ED1B3E4403E0781CA84200DD7D1CB81B10
:100CB00000F1010A4FF000472078000703D4AA454D
:100CC00001DB4FF0FF3A0021B7F1004F0DF143086F
:100CD0008DF8431024D002202B23002F01DA7F420D
:100CE0002D230A21021EA0F1010000DC5FB197FB59
:100CF000F1FC97FBF1F201FB1C7C17460CF1300C68
:100D000008F801CDEEE7A8F101000370218809057C
:100D100001D5452100E06521A0F1010800F8011C82
:100D200009980FA9A1EB0807FF1D00B10120411987
:100D300001EBEA70A1693844081A401EA0612078CE
:100D4000C00602D42046FFF7D4FB099828B1D4E9A5
:100D500001219047206A401C20622078C00622D5DD
:100D60002046FFF7C6FB1EE0002E04DBB34502DD84
:100D700001A8805D00E03020D4E901219047206A7D
:100D8000401C2062761CAAF101005FEA000A0AD129
:100D900000F0EAFAC0680168405CD4E9012190479C
:100DA000206A401C2062281EA5F10105DCDC07E05A
:100DB000D4E9012118F8010B9047206A401C2062F9
:100DC000381EA7F10107F3DC2046FFF7A8FB03203C
:100DD00011B041E62DE9F04F04460D46D21D22F038
:100DE000070089B0D0E900974846394601F0D6FFA0
:100DF0000246F80F01D02D2307E02068810701D5B6
:100E00002B2302E0202101EAC0038DF820300BB132
:100E1000012000E00020032A824601D0072A04DBDB
:100E20002946204600F0CCFA3FE12078800601D424
:100E30000D2500E0E569C7F30A560D2D49DA0021BA
:100E40004FEA175B08464FF00000002F00F4400007
:100E500007DA00EB80004FF4400100EBD07001EAAC
:100E600060008115012901DD4FF0FF3100224FEABA
:100E7000850CBCF1180F06D31346ACF118004FF0E7
:100E80008052C24003E04FF4801323FA0CF30CF1BC
:100E90000C0CBCF1200F04D3ACF1200C09FA0CF0BF
:100EA00001E007FA0CF000294FF0004801DD18B905
:100EB0000FE00ED140450CD319EB02095F4121B977
:100EC000404502D19F4329EA0209BBEB175F00D0DE
:100ED000761C2088000502D57B48784402E07A48D9
:100EE0007844193808AA302302F80A30037C0AF142
:100EF0000101002E0AF1020A53546A4602DC4FF047
:100F0000300101E04FF031014FF001088DF8001081
:100F100002D0A6F2FF3603E059EA470100D06B4E3B
:100F2000002D02DC2178090704D54FF002082E219C
:100F30008DF80110C44600210BE0C7F303433F01C5
:100F4000C35C491C6D1E02F80830052908F1010830
:100F500001DA002DF1DC00210CE000EB1973491CD3
:100F60001B786D1E082902F808304FEA091908F1AC
:100F7000010801DA002DF0DC21688B0602D516E0AD
:100F8000A8F10108E04505DD02EB080313F8013C78
:100F9000302BF5D0B8F1000F09DD02EB080313F890
:100FA000013C2E2B03D1090701D4A8F10108002D23
:100FB00005DD3E2102F808106D1E08F10108407C95
:100FC000002E02F8080008F1010804DA2D2076420C
:100FD00002F8080002E02B2002F808000A214FF472
:100FE0007A70864208F101080BDB96FBF0F3303390
:100FF00002F8083096FBF0F308F1010800FB1366D5
:1010000001E0642E0CDB642096FBF0F3303302F831
:10101000083096FBF0F308F1010800FB136601E0CD
:101020000A2E06DB96FBF1F0303002F8080008F1DA
:10103000010896FBF1F001FB1060303002F8080067
:10104000A16908F1010808EB050202EB0A00081A81
:10105000A0612078C00602D42046FFF74AFA216A30
:1010600008AE01EB0A00206204E0D4E9012116F881
:10107000010B9047BAF1010AF7D22078C00602D5D9
:101080002046FFF736FA6E4609E016F8010B3E28B7
:101090000FD0D4E901219047206A401C2062B8F1AA
:1010A0000108F2D22046FFF73AFA09B00320BDE862
:1010B000F08F206A2844206203E0D4E90121302027
:1010C00090476D1EEBD3F8E76520000002FCFFFFA0
:1010D00010B5436913B1AFF3008001E0FFF742FAA6
:1010E000012010BD127800F124010A7000224A701C
:1010F0000122EDE711684FF0FF32E9E710B54369CF
:1011000013B1AFF3008001E0FFF7F2FA012010BD48
:10111000128800F1240182840022C2840122EDE7BA
:1011200011684FF0FF32E9E7007B00F08000704764
:1011300010B54248542100F0AFFB4148542100F063
:10114000ABFB4048542100F0A7FB3F493B483C4AD9
:101150003F4B08603D490A603A491960531C0365DA
:10116000481C1065012008653B48344A39A1784481
:1011700000F0E6FA20B9384878440A3800F085FBD8
:1011800037482F4A35A1784400F0DAFA20B93448BC
:1011900078440A3800F079FB32482A4A2FA1784473
:1011A00000F0CEFA20B92F4878440A3800F06DFBE1
:1011B00040232248DC000021224600F09EFA20B1A4
:1011C00025487844543800F060FB1D4822464023EF
:1011D000002100F092FA20B121487844543800F000
:1011E00054FB184822461023002100F086FA0028FC
:1011F00006D01C487844BDE81040563800F045BB86
:1012000010BD104870B5006D20F001040B4800F0CF
:101210000DFB0B4800F00AFB0A4800F007FB09E051
:10122000206D20F00105204600F000FB204600F074
:101230009FF82C46002CF3D170BD00002000002048
:1012400074000020C80000201400002018000020B6
:101250001C00002072000000E41D00007700000068
:10126000D01D0000BC1D000070B516460C4605469A
:1012700000F072F8036893F80101012806D0FF2CF2
:101280000FD8185D68B101202C7070BDD3F807012C
:101290003246214603F2071303442846BDE8704056
:1012A00018474FF0FF3070BD0EB5CDE9000100F0DA
:1012B000AFFC029069460120ABBE0EBD08B5694681
:1012C00000900220ABBE08BD1FB58DE8070069463F
:1012D0000520ABBE04B010BD1FB58DE80F006946F8
:1012E0000620ABBEF6E708B5694600900920ABBE04
:1012F00008BD1CB5CDE9000169460A20ABBE1CBD86
:10130000704708B5694600900C20ABBE08BD754615
:1013100000F0EAFAAE4605006946534620F00700A1
:10132000854618B020B5FEF79BFFBDE820404FF082
:1013300000064FF000074FF000084FF0000B21F0BF
:101340000701AC46ACE8C009ACE8C009ACE8C0098C
:10135000ACE8C0098D46704710B500F005F8001DD7
:1013600010BD00BF551B0000004870473C01002025
:1013700070B50446051F00F0BDFA0068002C14BFCC
:10138000446870BD002C18BFAC423CBF2046646866
:10139000F8D301680A18AA4218BF456003D12A6829
:1013A00005461144016028684119A1421CBF6C60C8
:1013B00070BD6168696021680844286070BD0000E4
:1013C0002DE9F0411F46044603260168072A01F46F
:1013D000006004DB08B116A505E016A503E008B11E
:1013E00015A500E015A521F010002060A069C01E21
:1013F000A0610FB1401EA0612046FFF77AF84FB1FF
:10140000D4E9012138469047206A401C2062C01C64
:10141000206206E0206AFAE7D4E9012115F8010B01
:101420009047761EF8D22046FFF779F8BDE8F081A4
:101430004E414E006E616E00494E4600696E660078
:101440002DE9F047814616468AB0354878440DC8E4
:101450008DE80D0032487844801C03AC0DC884E848
:101460000D0041F69B300844372190FBF1F290FBD0
:10147000F1F5A5F1800501FB12041B3C02D5644285
:10148000012000E00020DFF898A080460027FA4401
:10149000AAF1BE0A0EE0E0070AD03246684607EB22
:1014A000470101230AEB810100F03FFF8DE80700AF
:1014B00064107F1C002CEED1194F7F44AE3F19E021
:1014C000E80715D007EB04100DF1180A90E80E009C
:1014D0008AE80E00C068F04201D19819089032469F
:1014E000012306A903A800F020FF03AB83E807004F
:1014F0006D10641C002DE3D14FF0010332466946A4
:10150000B8F1000F03A802D000F0FAFE01E000F0ED
:101510000CFFC9E90001C9F808200AB0BDE8F0874E
:10152000901B00002DE9F04705460C46C86820F4E2
:10153000201040F48000C860800602D5084600F004
:1015400026FBE06841F282014FF0FF390140022999
:1015500003D0204600F0C4FAB5E000F42041B1F514
:10156000004F0FD1C00306D56168E06A884200D8F9
:101570000846606006E02069E06260606069FFF72D
:10158000C0FEA061A0680022EEB200280DDAE1687A
:101590008B050AD4C043A06041F490302260E06023
:1015A0006068411C61600670A5E0E06890462260BA
:1015B00040F40050E060206968BB6069FFF793FE6B
:1015C000012704F12405A0B1A08910F4407F08D0C0
:1015D000E06900F0DAF9206118B1E06840F40060D9
:1015E00016E0E7612561E06820F4407040F4806017
:1015F0000EE0E06900F0C9F900282061F1D0E06850
:1016000040F4006010F4407FE06002D140F480704C
:10161000E06020696060E06825696FF0010AC1053B
:101620001FD56168E06A884200D80846411B04D093
:101630002246284600F05EFAF0BBE068010203D5BE
:10164000E562C4E9015854E0691CE1626160E16946
:1016500040F48030491EC4E9021030462E70BDE8C7
:10166000F087010202D500F480320AE06068411C74
:1016700061600670E0680A2E40F48030E06006D0B9
:101680000022E16A6068814203D90B4602E0012230
:10169000F7E70346A7895B1B7F0503D4E7699F42F1
:1016A00000DDE2B1814200D80146E5620F1AC4E9CB
:1016B0000158002B09DD00E005E0224619462846C6
:1016C00000F018FA08B14846C9E747B1A069E562D9
:1016D0006560C01BA061E06840F01000E060E06859
:1016E000000208D56168A069E562491B084465608D
:1016F000A0615046B3E73046B1E770B5C468A507AE
:1017000013D0650211D4B2F5807F09D0B2F5007F05
:1017100006D0B2F5806F08D1012300F1240106E064
:101720005D1E6FF07F46B54201D3012070BD01619F
:10173000C361416024F470611143C160002070BD39
:101740002DE9F0410C4607461646104600F06EF8AB
:101750002078611C61280AD0722802D077283CD1F9
:1017600002E00125002405E00225042402E008240B
:1017700048F2020511F8010B2B2806D0622809D087
:1017800011F8010C74280AD00BE045F0030544F071
:101790000204EFE745F0040544F00104EAE744F0F1
:1017A000100438462146FFF77FFD411C15D000216B
:1017B000316171604FF40071F560F1617061200773
:1017C00004D530460222002100F00EF9306D40F0C1
:1017D000010030653046BDE8F0810020FBE72DE9CF
:1017E000F0410D460646104C206DC10704D041085B
:1017F00004D020F00104F7E722460EE0542000F068
:10180000C4F807000ED0206D47F0010108435421B1
:101810002065384600F040F83A4629463046BDE893
:10182000F0418DE70020D6E7200000202DE9F047A9
:1018300004464FF000094FF0FF37C568D4E904862D
:10184000A80707D0204600F07FF93046FFF736FDA5
:10185000002802DA3846BDE8F087280502D5404660
:10186000FFF786FD4C21204600F016F8206D20F091
:10187000010020654846EEE710B50446AFF300804E
:101880002046BDE81040FEF7D6BC10B500F0A6F922
:10189000BDE8104000F09CB94FF0000200B51346BF
:1018A00094469646203922BFA0E80C50A0E80C5080
:1018B000B1F12001BFF4F7AF090728BFA0E80C5031
:1018C00048BF0CC05DF804EB890028BF40F8042B2A
:1018D00008BF704748BF20F8022B11F0804F18BF97
:1018E00000F8012B70470000004870471C010020E1
:1018F000704700000048704724010020704770477F
:101900007047704738B504460A4600206946AFF371
:101910000080002808BF38BD02460099204600F02C
:10192000E4F9012038BD012000F033BAF8B5AFF377
:101930000080054600200C46102000BF0646A8196E
:10194000A0420DD9324669460020AFF3008007005F
:1019500008BF00F01EFA0098A04218BF0546C4193F
:10196000FFF7C8FF05600746F01D20F00700461985
:10197000284600F0B3F9B44208BFF8BDA21B3146B7
:101980003868BDE8F84000F0B0B970B50646FFF71A
:10199000B1FF056806F10B0020F00704B4429CBFBC
:1019A000002070BD2B466A68BAB11068A04210D3FF
:1019B00004F1080188423CBF5068586007D3516861
:1019C000101941601168091B016058601460101DF6
:1019D00070BD13465268002AE7D121462846FFF71A
:1019E00091FF0028DED170BD2DE9F0410446164676
:1019F0000D464769007B80072ED03846FFF773FC01
:101A000050BB3EB3012E02D0022E25D104E0204669
:101A100000F085F905441DE03846FFF772FCE168E7
:101A2000002841F01001E16005DA204600F058F886
:101A30000120BDE8F081C9030BD56268E16A9142DB
:101A400000D81146A26911442269891A814200DD39
:101A500008460544002D01DA0220EAE7E16A6068E1
:101A6000E268814206D29103E06203D522F400319C
:101A700041F01002A6690027AE4213DCE16A814200
:101A800001D90B4600E0034603EB060C2369ACEBDF
:101A9000030CAC4506DD814201D98C4600E084464A
:101AA0009C4505D1A760276042F02000A5620DE0AB
:101AB000AD1BE669AE1B8142A66000D90846C01A7C
:101AC000281A20605819606022F02000034908405D
:101AD000E060002084F84870ABE70000BFCFD7FF7C
:101AE000C16821F4001141F08001C16000218160D2
:101AF000016070472DE9F047814614460E464FF0CD
:101B0000FF383248D5685769054209D03846A1697F
:101B1000FFF7EFFB002811DB2C48C0430540E560D0
:101B20002B46324649463846FFF7CEFBA16920F0E6
:101B30000042B21A11440028A16103D02046FFF7E9
:101B4000CFFF4046BDE8F08770B504460569C06A1E
:101B50006168884200D80846E16821F42011E160FC
:101B6000C90312D5A84208D02246411B2846FFF7D8
:101B7000C1FF10B14FF0FF3070BD0020E562C4E935
:101B80000150E06820F48030E060002070BD10B5A6
:101B90000446C06820F02000E060A16AA069884285
:101BA0000DD02046FFF7D0FFE06820F4405040F011
:101BB0001000E060A06AA0612069E062606044F209
:101BC0004001E0688843E06010BD000010000200A2
:101BD000002801D000F07CB87047000010B5014625
:101BE00002A000F0BDF8012010BD0000534947528B
:101BF000545245443A2052656469726563743A20D0
:101C000063616E2774206F70656E3A2000000000DB
:101C100010B5431C02E010F8011B71B18107FAD125
:101C20004FF0013202C88C1A8C4314EAC211F9D069
:101C3000C01A0A0603D0C01E10BDC01A10BD0A0487
:101C400001D0801E10BD0902FCD0401E10BD000056
:101C50004FF0013C50F8042B51F8043B9A4221D13B
:101C6000A2EB0C03934313EACC1317D150F8042BC7
:101C700051F8043B9A4215D1A2EB0C03934313EAAB
:101C8000CC130BD150F8042B51F8043B9A4209D1E4
:101C9000A2EB0C03934313EACC13DBD04FF000000C
:101CA000704700BFD01A01BAB1FA81F101F01801F2
:101CB00022FA01F0CB40C1F12001DBB2C0B2C01A60
:101CC0002CFA01F3D11A914311EAC311E6D17047FE
:101CD00001491820ABBEFEE726000200002101608A
:101CE000C0E90110704710207047034640688C46D9
:101CF000002818BF88423CBF03464068F8D31868E4
:101D00001844884207D00CF1030020F00700001DA2
:101D1000411A521A0146081D0A60FFF729BB10B587
:101D20000146C268900703D0900607D5886A0AE08A
:101D300000F03EF801210160881E10BD8B694868E3
:101D400018440B69C01A91F848301BB191F849103A
:101D5000401A10BD1103FCD50028FADD401E10BD4D
:101D600070B505460C460A2000E06D1C00F018F81E
:101D700035B128780028F8D102E0641C00F010F892
:101D800014B120780028F8D1BDE870400A2000F096
:101D900007B810B500F010F8BDE81040FFF718BF05
:101DA00008B569468DF800000320ABBE08BD0000F1
:101DB000004870471C01002010B5012805D0002103
:101DC00003A0FFF7CDFF012010BD09A1F8E7000037
:101DD00053494752544D454D3A204F7574206F6614
:101DE0002068656170206D656D6F7279000000007C
:101DF0003A2048656170206D656D6F727920636F60
:101E000072727570746564005FEA400C08BF91F0EF
:101E1000000F4FEA8C234FEAC12243EA51514FEAA7
:101E20001C5018BF00F5F0404FEA300018BF41F0D9
:101E300000415FEA6C5C00F02980BCF1FF3F08BF05
:101E400040F080407047130C06BF12044FF0100C96
:101E50004FF0000C130E04BF12020CF1080C130F0C
:101E600004BF12010CF1040C930F04BF92000CF19B
:101E7000020CD30F04BF52000CF1010C11464FF0BD
:101E80000002A0F11F00A0EB0C00704711F0004F02
:101E900008BF704731F000413FF4D5AF0B0C06BFCF
:101EA00009044FF0100C4FF0000C0B0E04BF090298
:101EB0000CF1080C0B0F04BF09010CF1040C8B0F83
:101EC00004BF89000CF1020CCB0F04BF49000CF1D8
:101ED000010CCCF12003A0EB0C0022FA03F302FA70
:101EE0000CF241EA030100F10100704720F07F4C41
:101EF00080EA030023F07F47ACEB070303F57C5334
:101F000000F0004003F1FF032DE980494FEA154B33
:101F100009B44FEA144325EA0B4E24EA03480FF2B2
:101F2000042606EB132749083E785FEA320203FBDA
:101F30000667C7F5000707FB06F64FEA54374FEA76
:101F4000D64606F1020607FB066CCCF1005C4FEAB0
:101F50001C472CEA074C07FB06F40CFB06F504EBC8
:101F600015464FEA961634BF00204FF000404FEA66
:101F7000D13706FB07FC4FEA1C4C0CFB0BF7D21BBE
:101F800003FB0CF761EB07010CFB0EF7B0EB07400E
:101F900072EB17420CFB08F734BFA2EB0742B2EB1F
:101FA000074261EB17414FEA0C444FEA910706FBE9
:101FB00007FC4FEA1C4C0CFB0BF7B0EBC74072EB75
:101FC000573203FB0CF734BFA2EBC742B2EBC74258
:101FD00061EB57310CFB0EF7B0EBC70072EB577299
:101FE0000CFB08F734BFA2EBC702B2EBC70261EBF0
:101FF0005771039F4FEA816141EA921104EBCC04CF
:102000004FEAD1374FEA826206FB07FC42EA9012A0
:102010004FEA80604FEA1C4C0CFB0BF7D21B03FB12
:102020000CF761EB07010CFB0EF7B0EB074072EB0E
:1020300017420CFB08F734BFA2EB0742B2EB074292
:1020400061EB17414FEA8C554FEA910704EB9C2452
:1020500006FB07FC4FEA1C4C0CFB0BF7B0EBC74030
:1020600072EB573203FB0CF734BFA2EBC742B2EB63
:10207000C74261EB57310CFB0EF7B0EBC70072EBB8
:1020800057720CFB08F734BFA2EBC702B2EBC702D2
:1020900061EB577115EB4C254FEA816141EA9211D2
:1020A0004FEA82624FEAD13742EA901206FB07FC00
:1020B00044F100044FEA80604FEA1C4C0CFB0BF724
:1020C000D21B03FB0CF761EB07010CFB0EF7B0EB27
:1020D000074072EB17420CFB08F734BFA2EB074234
:1020E000B2EB074261EB174115EB1C154FEA81314A
:1020F00041EA92414FEA823242EA90424FEA80300E
:102100004FEA0C7644F1000448EA03434EEA0B48D8
:102110004FF0000EB2EB080C71EB030724BF6246D0
:1021200039464EEB0E0E4FF0000B0018524149415C
:102130004BEB0B0BB2EB080C71EB03077BF1000BC5
:1021400024BF624639464EEB0E0E4FF0000B0018CE
:10215000524149414BEB0B0BB2EB080C71EB0307FF
:102160007BF1000B24BF624639464EEB0E0E51EA5E
:10217000020718BF46F0010616EB0E7655F1000275
:1021800054F1000103D5BDE88901BDE80088BDE830
:102190008901BDE80048B619524141EB0101A3F1A4
:1021A0000103704780807F7E7D7C7B7A79787776AB
:1021B00076757473727171706F6E6E6D6C6C6B6A24
:1021C0006A696868676666656464636362616160C2
:1021D000605F5F5E5E5D5D5C5C5B5B5A5A5959583F
:1021E00058575756565555555454535352525251A9
:1021F000515050504F4F4F4E4E4D4D4D4C4C4C4BFF
:102200004B4B4A4A4A494949484848474747474645
:102210004646454545444444444343434342424281
:1022200042414141002B9C4630D477002BD01CB555
:102230004FEA370703B44FF010004FF01001BAF126
:10224000000F06D0BCF1000FDCBF40F0080040F0EA
:1022500008014FF000000FBCBDE810400BF1010B6E
:10226000BBF1010F08BF5FEA170722BF12F101029D
:1022700011F101014FF0004143F1000300F0004073
:1022800043EA00007047F9D35708D0E746EA06460C
:1022900013F1400F4FEA16461FDD13F1200FDFBF89
:1022A00016430A46002120335B42BED0C3F120070B
:1022B00046EA064602FA07F74FEA164646EA0706D6
:1022C000C3F1200722FA03F201FA07F721FA03F11A
:1022D0004FF0000342EA0702A7E746EA020646EA91
:1022E00006464FEA164646EA0106BCBF46EA0646DF
:1022F000360C4FF000034FF000024FF0000194E75E
:102300002DE9804C9A46934670B491E8380007C88E
:1023100031EA400C48BF34EA430C03D5FFF7E6FD31
:10232000FFF780FFF0BCBDE8008C2DE9804C9A4699
:10233000934670B491E8380007C810F0804F08BF8A
:1023400013F0804F03D100F005F8FFF76BFFF0BCEE
:10235000BDE8008C20F07F4780EA030023F07F4C2B
:1023600007EB0C03A3F57C5300F00040A3F1FE0340
:1023700092F0000F00F0B38095F0000F00F077802E
:102380002DE901494FEA11404FEA144621EA00487D
:1023900000FB06FC24EA064708FB06F607FB08F8E4
:1023A00000FB07F718EB06484CEB164C4FEA124BB4
:1023B00018EB07484FEA15464CEB174022EA0B4E44
:1023C0000BFB06FC25EA06470EFB06F607FB0EFE96
:1023D0000BFB07F71EEB064E4CEB164C4FF00006BE
:1023E0001EEB074E4CEB174B18EB0B0840F10000AF
:1023F00018EB0E0B58EB000840F100008F1A4FF05D
:1024000000013CBFC943661B14BFB5EB040C00219F
:102410003CBFC943F61B4FEA17444EEA8E0E27EA2B
:1024200004454FEA1C4704FB07622CEA074C05FBF6
:1024300007F70CFB05F604FB0CFC16EB074642EB1A
:10244000174216EB0C4642EB1C421BEB060658EB00
:102450000202414146EA9E0601D5BDE80189B6194E
:10246000524141EB0101A3F10103BDE801894FEAAB
:1024700014454FEA114724EA054621EA074C05FBBB
:1024800007F406FB07F70CFB06F105FB0CFC11EB50
:10249000074144EB17444FEA124711EB0C4144EB60
:1024A0001C4422EA074C05FB07F206FB07F70CFB6E
:1024B00006F605FB0CFC16EB074642EB174216EB43
:1024C0000C4642EB1C456A1854F1000148BF7047A6
:1024D000B619524141EB0101A3F10103704795F098
:1024E000000F37D04FEA11424FEA144721EA024663
:1024F00024EA074C02FB07F106FB07F70CFB06F486
:1025000002FB0CFC14EB074441EB17414FEA154763
:1025100014EB0C4441EB1C4125EA074C02FB07F588
:1025200006FB07F70CFB06F602FB0CFC16EB074656
:1025300045EB174516EB0C4645EB1C42121951F1C1
:10254000000148BF7047B619524141EB0101A3F1A8
:10255000010370474FEA14454FEA114724EA054644
:1025600021EA074C05FB07F106FB07F70CFB06F217
:102570004FF0000605FB0CFC12EB074241EB174144
:1025800012EB0C4251EB1C4148BF7047921841EBD3
:102590000101A3F10103704700BFFEE770472DE979
:1025A000F0410246002500260020002300240027D9
:1025B00091F803C00CF00F0591F803C00CF0100C5B
:1025C000BCF1000F03D091F802C04CEA050591F868
:1025D00000C0BCF1000F31D0146800202BE04FF098
:1025E000010C0CFA00F3B1F800C00CEA03069E429D
:1025F00020D183004FF00F0C0CFA03F7BC4305FA0F
:1026000003FC4CEA040491F803C0BCF1280F06D186
:102610004FF0010C0CFA00FCC2F814C00AE091F86B
:1026200003C0BCF1480F05D14FF0010C0CFA00FCBF
:10263000C2F810C0401C0828D1D31460B1F800C003
:10264000BCF1FF0F34DD546800202EE000F1080CCF
:102650004FF0010808FA0CF3B1F800C00CEA0306C9
:102660009E4221D183004FF00F0C0CFA03F7BC43BC
:1026700005FA03FC4CEA040491F803C0BCF1280FEE
:1026800005D100F1080C08FA0CF8C2F8148091F892
:1026900003C0BCF1480F07D100F1080C4FF001084E
:1026A00008FA0CF8C2F81080401C0828CED35460F9
:1026B000BDE8F0810AB1016100E04161704700BFEF
:1026C000FEE700BFFEE7704770B500240EE0002172
:1026D000204600F0E6F8002504E0002000F002F9B2
:1026E000681CC5B2802DF8DB601CC4B2082CEEDB80
:1026F00070BD000008B50121082000F005F9142084
:102700008DF8030003208DF802004FF48070ADF8BF
:10271000000069460A48FFF742FF4FF40070ADF829
:10272000000069460648FFF73AFF012211020448FB
:10273000FFF7C0FF012251020148FFF7BBFF08BDB0
:10274000000C014070B50546002415E080202041B2
:1027500000EA05024FF400710E48FFF7ABFF0122BB
:1027600011020C48FFF7A6FF00224FF480710948C0
:10277000FFF7A0FF601CC4B2082CE7DB01221102A6
:102780000448FFF797FF00224FF480710148FFF7DC
:1027900091FF70BD000C014010B5012251020A48A2
:1027A000FFF788FF012211020748FFF783FF00228D
:1027B0004FF400710448FFF77DFF00224FF4807151
:1027C0000148FFF777FF10BD000C014010B5002253
:1027D0004FF400710648FFF76DFF01221102044813
:1027E000FFF768FF012251020148FFF763FF10BDA8
:1027F000000C014070B5002406E0002500E06D1CCF
:10280000B5F57A7FFBD3641CB4F57A7FF5D3FFF777
:1028100071FFAE2000F056F8D52000F053F880206C
:1028200000F050F8A82000F04DF83F2000F04AF8E2
:10283000D32000F047F8002000F044F8402000F0DA
:1028400041F8A12000F03EF8C82000F03BF8DA2063
:1028500000F038F8122000F035F8812000F032F84E
:10286000CF2000F02FF8D92000F02CF8F12000F054
:1028700029F8DB2000F026F8302000F023F8A4200F
:1028800000F020F8A62000F01DF88D2000F01AF8C6
:10289000142000F017F8AF2000F014F8FFF714FF31
:1028A00070BD70B505460C4645F0B00000F00AF862
:1028B000102141EA141000F005F804F00F0000F0B8
:1028C00001F870BD10B50446FFF766FF7820FFF7EA
:1028D00039FF0020FFF736FF2046FFF733FFFFF7F1
:1028E00075FF10BD10B50446FFF756FF7820FFF7BF
:1028F00029FF4020FFF726FF2046FFF723FFFFF7C1
:1029000065FF10BD7047000029B1064A9269024375
:10291000044B9A6104E0034A92698243014B9A6135
:10292000704700000010024030B500210022002452
:1029300000232D4D6D6805F00C0121B1042905D04F
:10294000082923D105E0294D056022E0274D0560C7
:102950001FE0254D6D6805F47012234D6D6805F478
:102960008034022505EB92421CB9214D5543056088
:102970000BE01D4D6D6805F400351DB11C4D554330
:10298000056002E0194D5543056002E0174D0560F2
:1029900000BF00BF144D6D6805F0F0010909154D29
:1029A0006B5C0568DD4045600F4D6D6805F4E061C6
:1029B000090A104D6B5C4568DD4085600A4D6D6805
:1029C00005F46051C90A0B4D6B5C4568DD40C5607C
:1029D000054D6D6805F44041890B074D6B5CC5687A
:1029E000B5FBF3F5056130BD0010024000127A001E
:1029F00000093D000000002010000020704700008A
:102A000000B585B001218803FFF77EFF0121042076
:102A1000FFF77AFF18208DF813004FF40070ADF81F
:102A2000100003208DF8120004A90E48FFF7B7FD2F
:102A30004FF4165000900020ADF80C000820ADF8BF
:102A40000A000020ADF80800ADF80600ADF804005B
:102A50006946054800F030F90121034800F012F9F9
:102A600005B000BD000801400038014010B5024625
:102A70000B46012100E05143181EA3F10103FAD1D6
:102A800088B210BD0FB400B59BB01DA8019002A87C
:102A9000019A1C99FDF7F6FB0020019002A800F0B6
:102AA0003EF81BB05DF814FB70B505460E460024D9
:102AB00004E0285D00F006F8601C84B2B442F8DB44
:102AC00070BD000010B504462146054800F060F9CD
:102AD00000BF8021024800F0E1F80028F9D010BDC5
:102AE000003801402DE9F04106460C46002512E071
:102AF000601B411E0A20FFF7B9FFB6FBF0F00A2168
:102B0000B0FBF1F201FB120000F130073846FFF78D
:102B1000D9FF681CC5B2A542EADBBDE8F08170B5FB
:102B20000446002504E0605DFFF7CCFF681CC5B2D9
:102B3000605D0028F7D170BD10B500F001F810BD40
:102B40000CB50020019000903348006840F48030BC
:102B50003149086000BF3048006800F40030009040
:102B60000198401C0190009818B90198B0F5A06F29
:102B7000F1D12948006800F4003010B10120009024
:102B800001E0002000900098012843D1234800680C
:102B900040F01000214908600846006820F003005A
:102BA00008600846006840F0020008601A48406863
:102BB000194948600846406848600846406840F443
:102BC000806048600846406820F47C1048600846F1
:102BD000406840F4E81048600846006840F08070A3
:102BE000086000BF0C48006800F000700028F9D0B1
:102BF0000948406820F003000749486008464068DB
:102C000040F00200486000BF0348406800F00C003C
:102C10000828F9D10CBD000000100240002002403D
:102C20007047000010B51348006840F001001149DA
:102C3000086008464068104908400E494860084648
:102C400000680E4908400B4908600846006820F4F7
:102C5000802008600846406820F4FE0048604FF479
:102C60001F008860FFF768FF4FF0006004490860AC
:102C700010BD0000001002400000FFF8FFFFF6FE4C
:102C800008ED00E021B1828942F40052828104E023
:102C900082894DF6FF731A408281704702460020F8
:102CA000B1F5007F00D100BF13880B400BB10120AC
:102CB00000E00020704700002DE9F04786B005468F
:102CC0000E460024A24600BFA1460027B08900B1ED
:102CD00000BF2F462C8A4CF6FF700440F088044356
:102CE0002C82AC894EF6F3100440B0883189084339
:102CF000718908430443AC81AC8A4FF6FF4004401D
:102D0000B0890443AC8201A8FFF70EFE1F4887423A
:102D100002D1DDF810A001E0DDF80CA0A88900F4D4
:102D2000004040B10AEBCA0000EB0A1031684900CC
:102D3000B0FBF1F807E00AEBCA0000EB0A103168BB
:102D40008900B0FBF1F86420B8FBF0F00401200921
:102D5000642101FB1089A88900F4004040B13220B1
:102D600000EBC900B0FBF1F000F00700044308E0FD
:102D7000322000EB09106421B0FBF1F000F00F00ED
:102D800004432C8106B0BDE8F08700000038014004
:102D9000C1F308028280704700BFFEE7490050EA95
:102DA000C12018BF04204A0D18BF40F0010040F2B6
:102DB000FF72B2EB515F08BF40F00200012808BF6C
:102DC0000520704730380A2801D2012070470020C2
:102DD00070478A68002A01DCFEF7A4BB521E8A6095
:102DE0004A68C0B2531C4B60107070479AB0FFF72E
:102DF00001FDFFF705FE4120FFF764FE12A0006809
:102E00001990042119A8FFF74FFE10A0FFF787FEC5
:102E1000042140F2D240FFF765FEDE210EA0FDF74F
:102E200043FA40F22B2210A16846FDF749FA6846A2
:102E3000FFF775FE40F2E7310FA0FFF723FE12A067
:102E4000FFF720FE00BFFEE7424344450D0A4E75E2
:102E50006D626572313D00000D0A4E756D626572DE
:102E6000323D2564000000000D0A4E756D626572EA
:102E7000333D2564000000000D0A4E756D626572D9
:102E8000343D2564000000000D0A000010B5002943
:102E90000AD00878002807D005487844FEF7D8FE05
:102EA000002801D0002010BD0248784410BD000069
:102EB0007E0100007601000010B500290AD00878D4
:102EC000002807D005487844FEF7C2FE002801D04C
:102ED000002010BD0248784410BD00006E010000C3
:102EE00066010000FDF740BEFDF774BF0400000856
:102EF00000000000000000020001000010000000BF
:102F00000000000000000000303132333435363725
:102F1000383941424344454640305800303132331D
:102F2000343536373839616263646566403078001D
:102F3000303132333435363738396162636465662F
:102F400078700030313233343536373839414243C6
:102F50004445465850003A7474003A7474003A7408
:102F60007400000002400000000000A0000000000B
:102F700005400000000000C8000000000C400000F8
:102F80000000409C00000000194000000020BCBE72
:102F90000000000034400000BFC91B8E0000000488
:102FA000B5400000504BCFD06607E2CF01000000D3
:102FB0006C4100003E8251AADFEEA7340100000000
:102FC000D9420000DCB5A0E23A301F97FFFFFFFFB7
:102FD000B4450000FD25A0C8E9A3C14FFFFFFFFFD6
:102FE000FF3F00000000008000000000FF3F0000E5
:102FF00000000080000000004431000800000020B4
:103000002000000028010008643100082000002092
:1030100060070000440100081C000000430000009D
:10302000F8FFFFFF0C0000000E0000000F00000082
:103030002E0000001001000043000000F8FFFFFF19
:1030400000404040404040404040414141414140BB
:103050004040404040404040404040404040404070
:1030600040050202020202020202020202020202FF
:103070000220202020202020202020020202020204
:10308000020290909090909010101010101010105C
:103090001010101010101010101010100202020268
:1030A00002028888888888880808080808080808AC
:1030B00008080808080808080808080802020202A8
:1030C00040000000000000000000000000000000C0
:1030D00000000000000000000000000000000000F0
:1030E00000000000000000000000000000000000E0
:1030F00000000000000000000000000000000000D0
:1031000000000000000000000000000000000000BF
:1031100000000000000000000000000000000000AF
:10312000000000000000000000000000000000009F
:10313000000000000000000000000000000000008F
:10314000000000000000000001020304010203046B
:10315000060708090204060800000000000000003D
:04316000000000006B
:04000005080000ED02
:00000001FF
